:0A0CED0011223344550000000000FE
:100CB300050DFFFFFFFFFF0508FFFFFFFFFF0152C9
:010CC3000030
:0B0CE100E4FEEEC39F5004000E80F7FD
:010CEC0022E5
:0E0CC500E4FFFE0FBF00010EBE05F8BFDCF518
:010CD30022FE
:100C9900EF1FAA0670011E4A600FE4FDEDC394C858
:090CA9007480948050EA0D80F380
:010CB200221F
:100C3E00E4FEEEC39408748094805015EF339293C3
:100C4E00EF25E0FFD295A294E4334207C2950E80C1
:010C5E00E1B4
:010C5F002272
:0B0C7D007F07120CD4AB07AD037F27EC
:100C8800C292120C3EAC07AF05120C3ED292AF04D2
:010C98002239
:0C0CD400C292120C3E7FFF120C3ED29226
:010CE00022F1
:060B67008B5F8A608961CA
:100B6D00C292120C3EAD07E4FCECC3956250177FA8
:100B7D00FF120C3EAB5FAA60A9618C82758300EFFA
:0A0B8D0012090F0C80E3D292AF05AD
:010B9700223B
:070B2E007B007562057F30BA
:060B35008B5F8A608961FC
:100B3B00C292120C3EAD07E4FCECC395625018ABAD
:100B4B005F0561E561AA607002056014F91208F691
:0B0B5B00FF120C3E0C80E2D292AF05AE
:010B6600226C
:060B98008B548A558956BA
:100B9E00120C7DEB30E61FC2B4AB54AA55A95675A4
:100BAE0062207F61120B677DFF7FE2120C88D2B448
:080BBE00120CC57F00227F012B
:010BC600220C
:100BC700C2B47562207FA0120B35D2B420B3FD12D8
:100BD7000C7DEB30E40A7DFF7FE1120C887F102249
:090BE700EB30E5037F20227FFFC3
:010BF00022E2
:100A7C0078547C007D007BFF7A0C79ED7E007F053D
:100A8C001208D078597C007D007BFF7A0C79F27EBD
:100A9C00007F051208D0C295D292C2B47A00795464
:100AAC00120B2E7B007A0079597562057F10120BA0
:100ABC0067E5596411701AE55A64227014E55B6499
:100ACC0033700EE55C64447008E55D64557002FF9C
:030ADC00227F0175
:010ADF0022F4
:100AE000C2B47D207F31120C887DFF7FE2120C881A
:100AF0007A00790D120B2E7B007A00790875620559
:100B00007F2A120B357D017F21120C887F22120C67
:100B1000887D1A7F24120C88E4FD7F25120C887DC5
:0E0B20000F7F26120C887F20120C88D2B42280
:090BF1007512027B007A007912F2
:100BFA00C2B47D0E7F20120C88D2B47F96120CE10B
:0F0C0A00120BC7C2B47D0F7F20120C88D2B42208
:10093100120A7CEF70FA120AE0120C60C2C9E4F5E7
:1009410096F59520B3427B007A007912120B98EF4D
:100951007036E513B43102C2CAE513B43202D2CA09
:10096100851253E4F552E552D39553501274132571
:1009710052F8E6FF74122552F8A607055280E77B6C
:10098100007A007912120C1920A0147F0A120CE1CE
:1009910020A00C751353751431120BF130A0FD20FA
:1009A100A1147F0A120CE120A10C751353751432A6
:1009B100120BF130A1FD20A2147F0A120CE120A23A
:1009C1000C751353751433120BF130A2FD30A303D0
:1009D1000209447F0A120CE130A303020944751392
:0F09E10053751434120BF130A30302094480F84C
:100C600053877F759850438E40538EFE53890F43B0
:0D0C70008920758BDC758DDCC2ABD28E2225
:080CF7008F993099FDC299228A
:100C19008B548A558956AB54AA55A9561208F660C1
:100C2900130556E5567002055514F91208F6FF1218
:050C39000CF780E2222F
:030000000209F002
:0C09F000787FE4F6D8FD758162020A37BA
:10080000E709F608DFFA8046E709F208DFFA803EDA
:1008100088828C83E709F0A3DFFA8032E309F608C7
:10082000DFFA8078E309F208DFFA807088828C832F
:10083000E309F0A3DFFA806489828A83E0A3F608E3
:10084000DFFA805889828A83E0A3F208DFFA804CBD
:1008500080D280FA80C680D4806980F28033801094
:1008600080A680EA809A80A880DA80E280CA8033FD
:1008700089828A83ECFAE493A3C8C582C8CCC58375
:10088000CCF0A3C8C582C8CCC583CCDFE9DEE78045
:100890000D89828A83E493A3F608DFF9ECFAA9F0C4
:1008A000EDFB2289828A83ECFAE0A3C8C582C8CC1A
:1008B000C583CCF0A3C8C582C8CCC583CCDFEADE33
:1008C000E880DB89828A83E493A3F208DFF980CC95
:1008D00088F0EF60010E4E60C388F0ED2402B4048E
:1008E0000050B9F582EB2402B4040050AF23234535
:0608F00082239008507302
:1008F600BB010689828A83E0225002E722BBFE0200
:09090600E32289828A83E4932232
:10090F00F8BB010DE58229F582E5833AF583E8F01E
:10091F00225006E92582C8F622BBFE05E92582C8CA
:02092F00F222B2
:1009FC00020931E493A3F8E493A34003F68001F2D7
:100A0C0008DFF48029E493A3F85407240CC8C333FB
:100A1C00C4540F4420C8834004F456800146F6DFCA
:100A2C00E4800B0102040810204080900CB3E47E9B
:100A3C00019360BCA3FF543F30E509541FFEE493BF
:100A4C00A360010ECF54C025E060A840B8E493A386
:100A5C00FAE493A3F8E493A3C8C582C8CAC583CAB1
:100A6C00F0A3C8C582C8CAC583CADFE9DEE780BE69
:010CC400002F
:00000001FF
